:030000000205C72F
:0C05C700787FE4F6D8FD75814802060E2E
:0407CC00021E00FE0B
:10078100E4F51CF51D851FB0AFB0EF651F7002E5E4
:100791001E6017AFB0EF2485600D24FE6006147053
:1007A100097F01227F02227F0322AF1F7801EF0818
:1007B100800123D8FD751E00F51F051DE51D700282
:0A07C100051C6404451C70BD7F0098
:0107CB00220B
:10080200253032642D253032642D253032640025A6
:100812003034642530326425303264005331202074
:10082200202025303264005332202020202530320F
:02083200640060
:1007D00001340901351F013137C109C10BC10A01BB
:1007E0002C00022F07E7022D000502320005013818
:0B07F000000136FE013700022200006D
:10073100750BFF750C08750D02750E0085340F756C
:1007410010008535117512008531137B007A00790F
:100751003A12006A750B00750C00750D247B007A46
:1007610000793A120653758901758CFC758A18D285
:100771008CD2A9D2AF12046F1208611206CC80F597
:03000B00020526C5
:10052600C0E0C0F0C083C082C0D075D000C000C09B
:0D05360001C002C003C004C005C006C0071C
:100543000523E523700205227B007A007924120833
:1005530034758CFC758A18E523B4B80DE522B40B09
:1005630008752200752300B209AE22AF237C037DF8
:10057300E81203B9ED4C70200531E531B43C19752F
:100583003100D20A0535E535B43C0D753500053427
:10059300E534B41803753400AE22AF237C007DC864
:0905A3001203B9ED4C7002D20BF9
:1005AC00D007D006D005D004D003D002D001D000A3
:0B05BC00D0D0D082D083D0F0D0E0324D
:10046F00E52C705420091B750BFF750C08750D02D8
:10047F00F50E85340FF510853511F512853113FB07
:10048F00801D750BFF750C08750D11852F0E8530AE
:10049F000F852D10852E118532128533137B007A2F
:1004AF0000793A12006A750B00750C00750D247BEC
:1004BF00007A00793A120653E52CB4012A750BFF26
:1004CF00750C08750D1E750E0085340F7B007A00B4
:1004DF00793A12006A750B00750C00750D247B00BC
:1004EF007A00793A120653E52CB4022A750BFF7580
:1004FF000C08750D29750E0085350F7B007A007974
:10050F003A12006A750B00750C00750D247B007A8A
:07051F0000793A1206532295
:10086100300B24C20B300A1F853690AF367801EF6A
:1008710008800123D8FDF5360537E537B41108C2E4
:080881000AE4F5377590FF222F
:1006CC001207818F39E5396538553924FE601314CA
:1006DC0060312402704B052CE52C64037043F52C1F
:1006EC00803FE52CB4010A0534E534B41803E4F575
:1006FC0034E52C6402702A0535E535643C7022F52E
:10070C0035801EE52CB4010A1534E534B4FF0375AD
:10071C003417E52CB4020A1535E535B4FF037535ED
:05072C003B8539382275
:1008B000539220FF30C031F932A433B034993592CD
:0A08C000368237F8388039902DBFDA
:0607FB000144000145FE6F
:1008340075A0FF854580AF44EF3395E08F82F58343
:1008440012036AF5A0AF457801EF08800123D8FDB3
:0C085400F5450544E544B40803E4F54410
:010860002275
:060653008B088A09890AE8
:10065900E4F547F548C3E548648094885064E4F5B7
:1006690046AB08AA09A90AAF47EF3395E08F82F58F
:100679008312036AFDAF46EF3395E0FEEF25E0FFF5
:10068900EE33FE74B02FF58274083EF583E493B51A
:10069900052374B12FF58274083EF583E493FFAB0B
:1006A9000BAA0CA90DE548FD3395E08D82F583EF82
:1006B90012039780070546E546B40FA50548054787
:0206C90080931C
:0106CB00220C
:1005D300020731E493A3F8E493A34003F68001F206
:1005E30008DFF48029E493A3F85407240CC8C33329
:1005F300C4540F4420C8834004F456800146F6DFF8
:10060300E4800B01020408102040809007CCE47EB4
:10061300019360BCA3FF543F30E509541FFEE493EC
:10062300A360010ECF54C025E060A840B8E493A3B3
:10063300FAE493A3F8E493A3C8C582C8CAC583CADE
:10064300F0A3C8C582C8CAC583CADFE9DEE780BE96
:0108010000F6
:10036A00BB010CE58229F582E5833AF583E0225048
:10037A0006E92582F8E622BBFE06E92582F8E22292
:0D038A00E58229F582E5833AF583E49322AC
:10039700F8BB010DE58229F582E5833AF583E8F09C
:1003A700225006E92582C8F622BBFE05E92582C848
:0203B700F22230
:1003B900BC000BBE0029EF8DF084FFADF022E4CC28
:1003C900F875F008EF2FFFEE33FEEC33FCEE9DECF1
:1003D900984005FCEE9DFE0FD5F0E9E4CEFD22ED37
:1003E900F8F5F0EE8420D21CFEADF075F008EF2F81
:1003F900FFED33FD4007985006D5F0F222C398FD72
:050409000FD5F0EA220E
:10000E00E517240BF8E60517227808300702780B5F
:10001E00E475F00112043902040E2000EB7F2ED29B
:10002E00008018EF540F2490D43440D4FF30040BCA
:10003E00EF24BFB41A0050032461FFE518600215C7
:10004E0018051BE51B7002051A30070D7808E475BC
:10005E00F001120439EF0204270208897403D20753
:10006E008003E4C207F5178B088A09890AE4F5189C
:10007E00F51AF51BE51860077F2012004980F5750B
:10008E0019FFC201C200C202C203C205C206C208E3
:10009E00120017FF700D3007057F0012005AAF1BBC
:1000AE00AE1A22B4255FC2D5C204120017FF24D0A7
:1000BE00B40A00501A75F00A781830D50508B6FF44
:1000CE000106C6A426F620D5047002D20380D924D8
:1000DE00CFB41A00EF5004C2E5D20402025AD20184
:1000EE0080C6D20080C0D20280BCD2D580BAD205E2
:1000FE0080B47F201200492002077401B518004019
:10010E00F112000EFF120049020082D208D20680C0
:10011E009512000EFB12000EFA12000EF94A4B70E9
:10012E0006792B7A037BFF20022EE518602A7E00CB
:10013E008E8275830012036A60060EEE651970F0EA
:10014E00C2D5EBC0E0EAC0E0E9C0E0EE1202A1D0F9
:10015E00E0F9D0E0FAD0E0FB12040EFF60AAEBC08B
:10016E00E0EAC0E0E9C0E0120049D0E02401F9D095
:10017E00E03400FAD0E0FBE5190460DCD519D98033
:10018E00877BFF7A02799DD202809C79108002795A
:10019E0008C206C2088008D2D5790A8004790AC23C
:1001AE00D5E519047002F519E4FAFDFEFF12000EF2
:1001BE00FC7B0820011312000EFD7B1030000A128A
:1001CE00000EFE12000EFF7B20EC3382D592D5502E
:1001DE0013C3E43000069FFFE49EFEE42001039D5E
:1001EE00FDE49CFCE4CBF8C201EC700CCFCECDCC80
:1001FE00E824F8F870F38017C3EF33FFEE33FEED0B
:10020E0033FDEC33FCEB33FB994002FB0FD8E9EBEB
:10021E00300105F8D0E0C448B201C0E00AEC4D4E02
:10022E004F78207B0070C2EAB5190040BCC0E012C6
:10023E0002A3D0F0D0E0200104C4C0E0C4B201C0DB
:10024E00F0120032D0F0D5F0EB0200821204490118
:10025E001F5301995800F04C00EC42019D4F01A52F
:0F026E004401A54901054301AB55018F46018F9E
:10027D0045018F47034B5000F42D00F82E011B2B29
:10028D0000FC2301192003342A00B4480000011397
:10029D003F3F3F00790AA2D5200314300509B9105C
:1002AD00020404B9080104A2D5200602500104205D
:1002BD0002689202B518005034C0E07F2030031957
:1002CD007F30A20272067205500F1202FAC202C2EC
:1002DD0006C205C2087F30800F300503E9C0E01269
:1002ED000049300503D0E0F9D0E0B518CC30051742
:1002FD007F30B9100C1200497F583004077F788089
:10030D0003B908031200493002057F2D0200497F11
:10031D00202008F87F2B2006F322920280CF286E32
:10032D00756C6C2900D20112000E3001F8C20178F3
:10033D001830D50108F60200B42D5043495812006B
:10034D000E2403B405004001E49003469312003AD5
:0D035D00743A12003AD20375180402019997
:10040E00BB010689828A83E0225002E722BBFE02EC
:09041E00E32289828A83E493221F
:10042700BB010689828A83F0225002F722BBFE01B4
:02043700F322AE
:10043900FAE6FB0808E6F925F0F618E6CA3AF622C4
:10044900D083D082F8E4937012740193700DA3A342
:1004590093F8740193F5828883E473740293686056
:06046900EFA3A3A380DF56
:10088900EFB40A07740D120894740A309811A899E4
:10089900B8130CC2983098FDA899C298B811F630CF
:0708A90099FDC299F59922A7
:00000001FF
