:030000000205787E
:0C057800787FE4F6D8FD75814D0205BFC8
:0F06F400253032642D253032642D2530326400DC
:0C06E00001120901131F01110A0108009A
:10060400753AFF753B06753CF4AF12EF3395E0F590
:100614003D8F3EAF13EF3395E0F53F8F40AF11EFC1
:100624003395E0F5418F427B007A00791412006A19
:10063400753A00753B00753C097B007A0079141209
:10064400036A758901758C3C758AB0D28CD2A9D2A3
:10065400AF7B007A00790912066EE4FFFE0FBF003B
:0A066400010EBE01F8BFF4F580E7B7
:03000B000204D21A
:1004D200C0E0C0F0C083C082C0D075D000C000C0F0
:0D04E20001C002C003C004C005C006C00771
:1004EF00758C3C758AB00508E508B4141F750800B3
:1004FF000511E511B43C157511000513E513700CCA
:10050F00F5130512E512B41803751200753AFF754D
:10051F003B06753CF4AF12EF3395E0F53D8F3EAFE0
:10052F0013EF3395E0F53F8F40AF11EF3395E0F5C3
:10053F00418F427B007A00791412006A753A007578
:0E054F003B00753C097B007A00791412036AA8
:10055D00D007D006D005D004D003D002D001D000F2
:0B056D00D0D0D082D083D0F0D0E0329C
:1006C60043C620FF30C031F932A433B03499359295
:0A06D600368237F8388039902DBFC6
:0706EC00014BFE024C00006F
:10066E0075A0FF854B80854D82854C8312043BF52A
:10067E00A0AF4B7801EF08800123D8FDF54B054D57
:10068E00E54D7002054C6408454C7004F54CF54D73
:01069E002239
:06036A008B378A38893947
:10037000E4F541F542F53FF540E4F53DF53EAB3798
:10038000AA38A939854082853F8312043BFDE53EAA
:1003900025E0FFE53D33FE74C62FF58274063EF579
:1003A00083E493B5051D74C72FF58274063EF5836B
:1003B000E493AB3AAA3BA93C85428285418312046F
:1003C0007A8045AB37AA38A939E5402401FFE435E6
:1003D0003F8F82F58312043BB42E1CAB3AE53C25DB
:1003E00042F9E53B3541FA120422547F12046805B4
:1003F00040E5407002053F053EE53E7002053D6464
:100400000D453D600302037E0540E5407002053F57
:100410000542E5427002054164084541600302035C
:010420007962
:0104210022B8
:10058400020604E493A3F8E493A34003F68001F283
:1005940008DFF48029E493A3F85407240CC8C33378
:1005A400C4540F4420C8834004F456800146F6DF47
:1005B400E4800B01020408102040809006E0E47EF1
:1005C400019360BCA3FF543F30E509541FFEE4933C
:1005D400A360010ECF54C025E060A840B8E493A303
:1005E400FAE493A3F8E493A3C8C582C8CAC583CA2E
:1005F400F0A3C8C582C8CAC583CADFE9DEE780BEE6
:0106F3000006
:10042200BB010689828A83E0225002E722BBFE02D8
:09043200E32289828A83E493220B
:10043B00BB010CE58229F582E5833AF583E0225076
:10044B0006E92582F8E622BBFE06E92582F8E222C0
:0D045B00E58229F582E5833AF583E49322DA
:10046800BB010689828A83F0225002F722BBFE0173
:02047800F3226D
:10047A00F8BB010DE58229F582E5833AF583E8F0B8
:10048A00225006E92582C8F622BBFE05E92582C864
:02049A00F2224C
:10000E00E546243AF8E60546227837301002783A6B
:10001E00E475F00112049C0204222009EB7F2ED21B
:10002E00098018EF540F2490D43440D4FF300D0BB8
:10003E00EF24BFB41A0050032461FFE54760021598
:10004E0047054AE54A7002054930100D7837E475C8
:10005E00F00112049CEF02046802069F7403D21092
:10006E008003E4C210F5468B378A388939E4F547A8
:10007E00F549F54AE54760077F2012004980F5757E
:10008E0048FFC20AC209C20BC20CC20EC20FC21175
:10009E00120017FF700D3010057F0012005AAF4A84
:1000AE00AE4922B4255FC2D5C20D120017FF24D06F
:1000BE00B40A00501A75F00A784730D50508B6FF15
:1000CE000106C6A426F620D5047002D20C80D924CF
:1000DE00CFB41A00EF5004C2E5D20D02025AD20A72
:1000EE0080C6D20980C0D20B80BCD2D580BAD20EC7
:1000FE0080B47F20120049200B077401B5470040E1
:10010E00F112000EFF120049020082D211D20F80AE
:10011E009512000EFB12000EFA12000EF94A4B70E9
:10012E0006792B7A037BFF200B2EE547602A7E0093
:10013E008E8275830012043B60060EEE654870F0E9
:10014E00C2D5EBC0E0EAC0E0E9C0E0EE1202A1D0F9
:10015E00E0F9D0E0FAD0E0FB120422FF60AAEBC077
:10016E00E0EAC0E0E9C0E0120049D0E02401F9D095
:10017E00E03400FAD0E0FBE5480460DCD548D980D5
:10018E00877BFF7A02799DD20B809C791080027951
:10019E0008C20FC2118008D2D5790A8004790AC22A
:1001AE00D5E548047002F548E4FAFDFEFF12000E94
:1001BE00FC7B08200A1312000EFD7B1030090A1278
:1001CE00000EFE12000EFF7B20EC3382D592D5502E
:1001DE0013C3E43009069FFFE49EFEE4200A039D4C
:1001EE00FDE49CFCE4CBF8C20AEC700CCFCECDCC77
:1001FE00E824F8F870F38017C3EF33FFEE33FEED0B
:10020E0033FDEC33FCEB33FB994002FB0FD8E9EBEB
:10021E00300A05F8D0E0C448B20AC0E00AEC4D4EF0
:10022E004F78207B0070C2EAB5480040BCC0E01297
:10023E0002A3D0F0D0E0200A04C4C0E0C4B20AC0C9
:10024E00F0120032D0F0D5F0EB0200821204AC01B5
:10025E001F5301995800F04C00EC42019D4F01A52F
:0F026E004401A54901054301AB55018F46018F9E
:10027D0045018F47034B5000F42D00F82E011B2B29
:10028D0000FC2301192003342A00B4480000011397
:10029D003F3F3F00790AA2D5200C14300E09B9104A
:1002AD00020404B9080104A2D5200F025001042054
:1002BD000B68920BB547005034C0E07F20300C190D
:1002CD007F30A20B720F720E500F1202FAC20BC2C8
:1002DD000FC20EC2117F30800F300E03E9C0E01245
:1002ED000049300E03D0E0F9D0E0B547CC300E1701
:1002FD007F30B9100C1200497F58300D077F788080
:10030D0003B90803120049300B057F2D0200497F08
:10031D00202011F87F2B200FF322920B80CF286E17
:10032D00756C6C2900D20A12000E300AF8C20A78D8
:10033D004730D50108F60200B42D5043495812003C
:10034D000E2403B405004001E49003469312003AD5
:0D035D00743A12003AD20C7547040201995F
:10049C00FAE6FB0808E6F925F0F618E6CA3AF62261
:1004AC00D083D082F8E4937012740193700DA3A3DF
:1004BC0093F8740193F5828883E4737402936860F3
:0604CC00EFA3A3A380DFF3
:10069F00EFB40A07740D1206AA740A309811A899BC
:1006AF00B8130CC2983098FDA899C298B811F630BB
:0706BF0099FDC299F5992293
:00000001FF
