:0300000002066293
:0C066200787FE4F6D8FD7581420206A9FD
:10074700253032642D253032642D25303264002562
:100757003464253032642530326400533120202040
:100767002025303264005332202020202530326487
:010777000081
:1007A90001320901331F013037022E07E7012D01FC
:1007B90001310C012C00C109C10AC10B013500012D
:0607C90034FE02220000D4
:1006EE00750DFF750E07750F47AF32EF3395E0F5B9
:1006FE00108F11AF33EF3395E0F5128F13AF30EF4C
:10070E003395E0F5148F157B007A00793612006A66
:10071E00750D00750E00750F247B007A0079361268
:10072E00046F758901758CFC758A18D28CD2A9D28A
:09073E00AF1205C61207D780F8BE
:03000B00020527C4
:10052700C0E0C0F0C083C082C0D075D000C000C09A
:0D05370001C002C003C004C005C006C0071B
:10054400758CFC758A180523E523700205227B004F
:100554007A007924120778E523B4B80DE522B40BA8
:1005640008B209752200752300AE22AF237C037DF7
:10057400E81203E4ED4C701E0530E530B43C17D2AC
:100584000A7530000533E533700CF5330532E53276
:10059400B41803753200AE22AF237C007DC8120369
:0705A400E4ED4C7002D20BE4
:1005AB00D007D006D005D004D003D002D001D000A4
:0B05BB00D0D0D082D083D0F0D0E0324E
:1005C600E52C7049200921750DFF750E07750F473B
:1005D600AF32EF3395E0F5108F11AF33EF3395E07F
:1005E600F5128F13AF30801B750DFF750E07750F53
:1005F60056852E10852F11AF2DEF3395E0F5128F0E
:1006060013AF31EF3395E0F5148F158033E52C6485
:10061600017015750DFF750E07750F62AF32EF335A
:1006260095E0F5108F118018E52CB4022E750DFF9C
:10063600750E07750F6DAF33EF3395E0F5108F111B
:100646007B007A00793612006A750D00750E00750A
:0C0656000F247B007A00793612046F221A
:1007D700300B24C20B300A1F853490AF347801EFF9
:1007E70008800123D8FDF5340535E535B41108C275
:0807F7000AE4F5357590FF22BC
:1008260043C620FF30C031F932A433B03499359233
:0A083600368237F8388039902DBF64
:0707CF000140FE02410000A1
:1007780075A0FF854080854282854183120383F5F9
:10078800A0AF407801EF08800123D8FDF54005426D
:10079800E54270020541640845417004F541F5429F
:0107A800222E
:06046F008B0A8A0B890CC8
:10047500E4F514F515F512F513E4F510F511AB0ACD
:10048500AA0BA90C851382851283120383FDE5113E
:1004950025E0FFE51033FE74262FF58274083EF53E
:1004A50083E493B5051D74272FF58274083EF58303
:1004B500E493AB0DAA0EA90F85158285148312034B
:1004C500C28045AB0AAA0BA90CE5132401FFE4354C
:1004D500128F82F583120383B42E1CAB0DE50F2515
:1004E50015F9E50E3514FA12036A547F1203B005A7
:1004F50013E513700205120511E51170020510646C
:100505000D451060030204830513E51370020512FF
:100515000515E51570020514640845146003020409
:010525007E57
:0105260022B2
:10066E000206EEE493A3F8E493A34003F68001F2AE
:10067E0008DFF48029E493A3F85407240CC8C3338D
:10068E00C4540F4420C8834004F456800146F6DF5C
:10069E00E4800B01020408102040809007A9E47E3C
:1006AE00019360BCA3FF543F30E509541FFEE49351
:1006BE00A360010ECF54C025E060A840B8E493A318
:1006CE00FAE493A3F8E493A3C8C582C8CAC583CA43
:1006DE00F0A3C8C582C8CAC583CADFE9DEE780BEFB
:0107D6000022
:10036A00BB010689828A83E0225002E722BBFE0291
:09037A00E32289828A83E49322C4
:10038300BB010CE58229F582E5833AF583E022502F
:1003930006E92582F8E622BBFE06E92582F8E22279
:0D03A300E58229F582E5833AF583E4932293
:1003B000BB010689828A83F0225002F722BBFE012C
:0203C000F32226
:1003C200F8BB010DE58229F582E5833AF583E8F071
:1003D200225006E92582C8F622BBFE05E92582C81D
:0203E200F22205
:1003E400BC000BBE0029EF8DF084FFADF022E4CCFD
:1003F400F875F008EF2FFFEE33FEEC33FCEE9DECC6
:10040400984005FCEE9DFE0FD5F0E9E4CEFD22ED0B
:10041400F8F5F0EE8420D21CFEADF075F008EF2F55
:10042400FFED33FD4007985006D5F0F222C398FD46
:050434000FD5F0EA22E3
:10000E00E519240DF8E6051922780A300702780D55
:10001E00E475F00112043902036A2000EB7F2ED240
:10002E00008018EF540F2490D43440D4FF30040BCA
:10003E00EF24BFB41A0050032461FFE51A600215C5
:10004E001A051DE51D7002051C30070D780AE475B2
:10005E00F001120439EF0203B00207FF7403D20756
:10006E008003E4C207F5198B0A8A0B890CE4F51A92
:10007E00F51CF51DE51A60077F2012004980F57505
:10008E001BFFC201C200C202C203C205C206C208E1
:10009E00120017FF700D3007057F0012005AAF1DBA
:1000AE00AE1C22B4255FC2D5C204120017FF24D0A5
:1000BE00B40A00501A75F00A781A30D50508B6FF42
:1000CE000106C6A426F620D5047002D20380D924D8
:1000DE00CFB41A00EF5004C2E5D20402025AD20184
:1000EE0080C6D20080C0D20280BCD2D580BAD205E2
:1000FE0080B47F201200492002077401B51A004017
:10010E00F112000EFF120049020082D208D20680C0
:10011E009512000EFB12000EFA12000EF94A4B70E9
:10012E0006792B7A037BFF20022EE51A602A7E00C9
:10013E008E8275830012038360060EEE651B70F0CF
:10014E00C2D5EBC0E0EAC0E0E9C0E0EE1202A1D0F9
:10015E00E0F9D0E0FAD0E0FB12036AFF60AAEBC030
:10016E00E0EAC0E0E9C0E0120049D0E02401F9D095
:10017E00E03400FAD0E0FBE51B0460DCD51BD9802F
:10018E00877BFF7A02799DD202809C79108002795A
:10019E0008C206C2088008D2D5790A8004790AC23C
:1001AE00D5E51B047002F51BE4FAFDFEFF12000EEE
:1001BE00FC7B0820011312000EFD7B1030000A128A
:1001CE00000EFE12000EFF7B20EC3382D592D5502E
:1001DE0013C3E43000069FFFE49EFEE42001039D5E
:1001EE00FDE49CFCE4CBF8C201EC700CCFCECDCC80
:1001FE00E824F8F870F38017C3EF33FFEE33FEED0B
:10020E0033FDEC33FCEB33FB994002FB0FD8E9EBEB
:10021E00300105F8D0E0C448B201C0E00AEC4D4E02
:10022E004F78207B0070C2EAB51B0040BCC0E012C4
:10023E0002A3D0F0D0E0200104C4C0E0C4B201C0DB
:10024E00F0120032D0F0D5F0EB0200821204490118
:10025E001F5301995800F04C00EC42019D4F01A52F
:0F026E004401A54901054301AB55018F46018F9E
:10027D0045018F47034B5000F42D00F82E011B2B29
:10028D0000FC2301192003342A00B4480000011397
:10029D003F3F3F00790AA2D5200314300509B9105C
:1002AD00020404B9080104A2D5200602500104205D
:1002BD0002689202B51A005034C0E07F2030031955
:1002CD007F30A20272067205500F1202FAC202C2EC
:1002DD0006C205C2087F30800F300503E9C0E01269
:1002ED000049300503D0E0F9D0E0B51ACC30051740
:1002FD007F30B9100C1200497F583004077F788089
:10030D0003B908031200493002057F2D0200497F11
:10031D00202008F87F2B2006F322920280CF286E32
:10032D00756C6C2900D20112000E3001F8C20178F3
:10033D001A30D50108F60200B42D50434958120069
:10034D000E2403B405004001E49003469312003AD5
:0D035D00743A12003AD203751A0402019995
:10043900FAE6FB0808E6F925F0F618E6CA3AF622C4
:10044900D083D082F8E4937012740193700DA3A342
:1004590093F8740193F5828883E473740293686056
:06046900EFA3A3A380DF56
:1007FF00EFB40A07740D12080A740A309811A899F9
:10080F00B8130CC2983098FDA899C298B811F63059
:07081F0099FDC299F5992231
:00000001FF
