:0300000002066293
:0C066200787FE4F6D8FD7581410206A9FE
:1007F000253032642D253032642D253032640025B9
:100800003464253032642530326400533120202096
:1008100020253032640053322020202025303264DD
:0108200000D7
:1008210001320901331F013037022E07E7012D0183
:1008310001310C012C00C109C10AC10B01350001B4
:0908410034FE0136000222000021
:10075700750BFF750C07750DF0AF32EF3395E0F5AC
:100767000E8F0FAF33EF3395E0F5108F11AF30EFEA
:100777003395E0F5128F137B007A00793812006AFF
:10078700750B00750C00750D247B007A0079381203
:10079700046F758901758CFC758A18D28CD2A9D221
:0C07A700AF1205C61208831206EE80F5A2
:03000B00020527C4
:10052700C0E0C0F0C083C082C0D075D000C000C09A
:0D05370001C002C003C004C005C006C0071B
:10054400758CFC758A180523E523700205227B004F
:100554007A007924120852E523B4B80DE522B40BCD
:1005640008B209752200752300AE22AF237C037DF7
:10057400E81203E4ED4C701E0530E530B43C17D2AC
:100584000A7530000533E533700CF5330532E53276
:10059400B41803753200AE22AF237C007DC8120369
:0705A400E4ED4C7002D20BE4
:1005AB00D007D006D005D004D003D002D001D000A4
:0B05BB00D0D0D082D083D0F0D0E0324E
:1005C600E52C7049200921750BFF750C07750DF098
:1005D600AF32EF3395E0F50E8F0FAF33EF3395E083
:1005E600F5108F11AF30801B750BFF750C07750D5D
:1005F600FF852E0E852F0FAF2DEF3395E0F5108F6B
:1006060011AF31EF3395E0F5128F138033E52C648B
:10061600017015750BFF750C08750D0BAF32EF33B6
:1006260095E0F50E8F0F8018E52CB4022E750BFFA2
:10063600750C08750D16AF33EF3395E0F50E8F0F79
:100646007B007A00793812006A750B00750C00750C
:0C0656000D247B007A00793812046F221A
:10088300300B24C20B300A1F853490AF347801EF4C
:1008930008800123D8FDF5340535E535B41108C2C8
:0808A3000AE4F5357590FF220F
:1006EE001207B38F37E5376536553724FE6013147E
:1006FE0060332402704F052CE52C64037047F52CF3
:10070E008043E52CB4010C0532E53264187036F5E1
:10071E00328032E52C6402702C0533E533643C7074
:10072E0024F5338020E52CB4010C1532E532B4FFEC
:10073E0014753217800FE52CB4020A1533E533B465
:09074E00FF0375333B85373622A9
:1008D200539220FF30C031F932A433B034993592AB
:0A08E200368237F8388039902DBFB8
:07084A00011CFE021D00006D
:1008520075A0FF851C80851E82851D83120383F58A
:10086200A0AF1C7801EF08800123D8FDF51C051EFE
:10087200E51E7002051D6408451D7004F51DF51E78
:010882002253
:06046F008B088A09890ACE
:10047500E4F512F513F510F511E4F50EF50FAB08DB
:10048500AA09A90A851182851083120383FDE50F48
:1004950025E0FFE50E33FE74D22FF58274083EF594
:1004A50083E493B5051D74D32FF58274083EF58357
:1004B500E493AB0BAA0CA90D851382851283120355
:1004C500C28045AB08AA09A90AE5112401FFE43554
:1004D500108F82F583120383B42E1CAB0BE50D251B
:1004E50013F9E50C3512FA12036A547F1203B005AD
:1004F50011E51170020510050FE50F7002050E6478
:100505000D450E60030204830511E5117002051007
:100515000513E51370020512640845126003020411
:010525007E57
:0105260022B2
:1007B3007509FEE4F5088509B0E5B065096017AF72
:1007C300B0EF2485600D24FE60061470097F0122BA
:1007D3007F02227F0322AF097801EF08800123D82B
:0C07E300FDF5090508E508B404CC7F0012
:0107EF0022E7
:10066E00020757E493A3F8E493A34003F68001F244
:10067E0008DFF48029E493A3F85407240CC8C3338D
:10068E00C4540F4420C8834004F456800146F6DF5C
:10069E00E4800B0102040810204080900821E47EC3
:1006AE00019360BCA3FF543F30E509541FFEE49351
:1006BE00A360010ECF54C025E060A840B8E493A318
:1006CE00FAE493A3F8E493A3C8C582C8CAC583CA43
:1006DE00F0A3C8C582C8CAC583CADFE9DEE780BEFB
:0108510000A6
:10036A00BB010689828A83E0225002E722BBFE0291
:09037A00E32289828A83E49322C4
:10038300BB010CE58229F582E5833AF583E022502F
:1003930006E92582F8E622BBFE06E92582F8E22279
:0D03A300E58229F582E5833AF583E4932293
:1003B000BB010689828A83F0225002F722BBFE012C
:0203C000F32226
:1003C200F8BB010DE58229F582E5833AF583E8F071
:1003D200225006E92582C8F622BBFE05E92582C81D
:0203E200F22205
:1003E400BC000BBE0029EF8DF084FFADF022E4CCFD
:1003F400F875F008EF2FFFEE33FEEC33FCEE9DECC6
:10040400984005FCEE9DFE0FD5F0E9E4CEFD22ED0B
:10041400F8F5F0EE8420D21CFEADF075F008EF2F55
:10042400FFED33FD4007985006D5F0F222C398FD46
:050434000FD5F0EA22E3
:10000E00E517240BF8E60517227808300702780B5F
:10001E00E475F00112043902036A2000EB7F2ED240
:10002E00008018EF540F2490D43440D4FF30040BCA
:10003E00EF24BFB41A0050032461FFE518600215C7
:10004E0018051BE51B7002051A30070D7808E475BC
:10005E00F001120439EF0203B00208AB7403D207A9
:10006E008003E4C207F5178B088A09890AE4F5189C
:10007E00F51AF51BE51860077F2012004980F5750B
:10008E0019FFC201C200C202C203C205C206C208E3
:10009E00120017FF700D3007057F0012005AAF1BBC
:1000AE00AE1A22B4255FC2D5C204120017FF24D0A7
:1000BE00B40A00501A75F00A781830D50508B6FF44
:1000CE000106C6A426F620D5047002D20380D924D8
:1000DE00CFB41A00EF5004C2E5D20402025AD20184
:1000EE0080C6D20080C0D20280BCD2D580BAD205E2
:1000FE0080B47F201200492002077401B518004019
:10010E00F112000EFF120049020082D208D20680C0
:10011E009512000EFB12000EFA12000EF94A4B70E9
:10012E0006792B7A037BFF20022EE518602A7E00CB
:10013E008E8275830012038360060EEE651970F0D1
:10014E00C2D5EBC0E0EAC0E0E9C0E0EE1202A1D0F9
:10015E00E0F9D0E0FAD0E0FB12036AFF60AAEBC030
:10016E00E0EAC0E0E9C0E0120049D0E02401F9D095
:10017E00E03400FAD0E0FBE5190460DCD519D98033
:10018E00877BFF7A02799DD202809C79108002795A
:10019E0008C206C2088008D2D5790A8004790AC23C
:1001AE00D5E519047002F519E4FAFDFEFF12000EF2
:1001BE00FC7B0820011312000EFD7B1030000A128A
:1001CE00000EFE12000EFF7B20EC3382D592D5502E
:1001DE0013C3E43000069FFFE49EFEE42001039D5E
:1001EE00FDE49CFCE4CBF8C201EC700CCFCECDCC80
:1001FE00E824F8F870F38017C3EF33FFEE33FEED0B
:10020E0033FDEC33FCEB33FB994002FB0FD8E9EBEB
:10021E00300105F8D0E0C448B201C0E00AEC4D4E02
:10022E004F78207B0070C2EAB5190040BCC0E012C6
:10023E0002A3D0F0D0E0200104C4C0E0C4B201C0DB
:10024E00F0120032D0F0D5F0EB0200821204490118
:10025E001F5301995800F04C00EC42019D4F01A52F
:0F026E004401A54901054301AB55018F46018F9E
:10027D0045018F47034B5000F42D00F82E011B2B29
:10028D0000FC2301192003342A00B4480000011397
:10029D003F3F3F00790AA2D5200314300509B9105C
:1002AD00020404B9080104A2D5200602500104205D
:1002BD0002689202B518005034C0E07F2030031957
:1002CD007F30A20272067205500F1202FAC202C2EC
:1002DD0006C205C2087F30800F300503E9C0E01269
:1002ED000049300503D0E0F9D0E0B518CC30051742
:1002FD007F30B9100C1200497F583004077F788089
:10030D0003B908031200493002057F2D0200497F11
:10031D00202008F87F2B2006F322920280CF286E32
:10032D00756C6C2900D20112000E3001F8C20178F3
:10033D001830D50108F60200B42D5043495812006B
:10034D000E2403B405004001E49003469312003AD5
:0D035D00743A12003AD20375180402019997
:10043900FAE6FB0808E6F925F0F618E6CA3AF622C4
:10044900D083D082F8E4937012740193700DA3A342
:1004590093F8740193F5828883E473740293686056
:06046900EFA3A3A380DF56
:1008AB00EFB40A07740D1208B6740A309811A899A0
:1008BB00B8130CC2983098FDA899C298B811F630AD
:0708CB0099FDC299F5992285
:00000001FF
